{
  "_format": "hh-sol-artifact-1",
  "contractName": "SocialNFT",
  "sourceName": "contracts/SocialNFT.sol",
  "abi": [
    {
      "inputs": [],
      "stateMutability": "nonpayable",
      "type": "constructor"
    },
    {
      "inputs": [
        {
          "internalType": "address",
          "name": "sender",
          "type": "address"
        },
        {
          "internalType": "uint256",
          "name": "tokenId",
          "type": "uint256"
        },
        {
          "internalType": "address",
          "name": "owner",
          "type": "address"
        }
      ],
      "name": "ERC721IncorrectOwner",
      "type": "error"
    },
    {
      "inputs": [
        {
          "internalType": "address",
          "name": "operator",
          "type": "address"
        },
        {
          "internalType": "uint256",
          "name": "tokenId",
          "type": "uint256"
        }
      ],
      "name": "ERC721InsufficientApproval",
      "type": "error"
    },
    {
      "inputs": [
        {
          "internalType": "address",
          "name": "approver",
          "type": "address"
        }
      ],
      "name": "ERC721InvalidApprover",
      "type": "error"
    },
    {
      "inputs": [
        {
          "internalType": "address",
          "name": "operator",
          "type": "address"
        }
      ],
      "name": "ERC721InvalidOperator",
      "type": "error"
    },
    {
      "inputs": [
        {
          "internalType": "address",
          "name": "owner",
          "type": "address"
        }
      ],
      "name": "ERC721InvalidOwner",
      "type": "error"
    },
    {
      "inputs": [
        {
          "internalType": "address",
          "name": "receiver",
          "type": "address"
        }
      ],
      "name": "ERC721InvalidReceiver",
      "type": "error"
    },
    {
      "inputs": [
        {
          "internalType": "address",
          "name": "sender",
          "type": "address"
        }
      ],
      "name": "ERC721InvalidSender",
      "type": "error"
    },
    {
      "inputs": [
        {
          "internalType": "uint256",
          "name": "tokenId",
          "type": "uint256"
        }
      ],
      "name": "ERC721NonexistentToken",
      "type": "error"
    },
    {
      "inputs": [
        {
          "internalType": "address",
          "name": "owner",
          "type": "address"
        }
      ],
      "name": "OwnableInvalidOwner",
      "type": "error"
    },
    {
      "inputs": [
        {
          "internalType": "address",
          "name": "account",
          "type": "address"
        }
      ],
      "name": "OwnableUnauthorizedAccount",
      "type": "error"
    },
    {
      "inputs": [],
      "name": "ReentrancyGuardReentrantCall",
      "type": "error"
    },
    {
      "anonymous": false,
      "inputs": [
        {
          "indexed": true,
          "internalType": "address",
          "name": "owner",
          "type": "address"
        },
        {
          "indexed": true,
          "internalType": "address",
          "name": "approved",
          "type": "address"
        },
        {
          "indexed": true,
          "internalType": "uint256",
          "name": "tokenId",
          "type": "uint256"
        }
      ],
      "name": "Approval",
      "type": "event"
    },
    {
      "anonymous": false,
      "inputs": [
        {
          "indexed": true,
          "internalType": "address",
          "name": "owner",
          "type": "address"
        },
        {
          "indexed": true,
          "internalType": "address",
          "name": "operator",
          "type": "address"
        },
        {
          "indexed": false,
          "internalType": "bool",
          "name": "approved",
          "type": "bool"
        }
      ],
      "name": "ApprovalForAll",
      "type": "event"
    },
    {
      "anonymous": false,
      "inputs": [
        {
          "indexed": false,
          "internalType": "uint256",
          "name": "_fromTokenId",
          "type": "uint256"
        },
        {
          "indexed": false,
          "internalType": "uint256",
          "name": "_toTokenId",
          "type": "uint256"
        }
      ],
      "name": "BatchMetadataUpdate",
      "type": "event"
    },
    {
      "anonymous": false,
      "inputs": [
        {
          "indexed": false,
          "internalType": "uint256",
          "name": "_tokenId",
          "type": "uint256"
        }
      ],
      "name": "MetadataUpdate",
      "type": "event"
    },
    {
      "anonymous": false,
      "inputs": [
        {
          "indexed": true,
          "internalType": "uint256",
          "name": "tokenId",
          "type": "uint256"
        },
        {
          "indexed": false,
          "internalType": "uint256",
          "name": "price",
          "type": "uint256"
        },
        {
          "indexed": false,
          "internalType": "address",
          "name": "seller",
          "type": "address"
        }
      ],
      "name": "NFTListed",
      "type": "event"
    },
    {
      "anonymous": false,
      "inputs": [
        {
          "indexed": true,
          "internalType": "uint256",
          "name": "tokenId",
          "type": "uint256"
        },
        {
          "indexed": true,
          "internalType": "uint256",
          "name": "seriesId",
          "type": "uint256"
        },
        {
          "indexed": false,
          "internalType": "address",
          "name": "minter",
          "type": "address"
        }
      ],
      "name": "NFTMinted",
      "type": "event"
    },
    {
      "anonymous": false,
      "inputs": [
        {
          "indexed": true,
          "internalType": "uint256",
          "name": "seriesId",
          "type": "uint256"
        },
        {
          "indexed": false,
          "internalType": "address",
          "name": "creator",
          "type": "address"
        },
        {
          "indexed": false,
          "internalType": "uint256",
          "name": "maxSupply",
          "type": "uint256"
        },
        {
          "indexed": false,
          "internalType": "string",
          "name": "baseTokenURI",
          "type": "string"
        }
      ],
      "name": "NFTSeriesCreated",
      "type": "event"
    },
    {
      "anonymous": false,
      "inputs": [
        {
          "indexed": true,
          "internalType": "uint256",
          "name": "tokenId",
          "type": "uint256"
        },
        {
          "indexed": false,
          "internalType": "uint256",
          "name": "price",
          "type": "uint256"
        },
        {
          "indexed": false,
          "internalType": "address",
          "name": "seller",
          "type": "address"
        },
        {
          "indexed": false,
          "internalType": "address",
          "name": "buyer",
          "type": "address"
        }
      ],
      "name": "NFTSold",
      "type": "event"
    },
    {
      "anonymous": false,
      "inputs": [
        {
          "indexed": true,
          "internalType": "uint256",
          "name": "tokenId",
          "type": "uint256"
        }
      ],
      "name": "NFTUnlisted",
      "type": "event"
    },
    {
      "anonymous": false,
      "inputs": [
        {
          "indexed": true,
          "internalType": "address",
          "name": "previousOwner",
          "type": "address"
        },
        {
          "indexed": true,
          "internalType": "address",
          "name": "newOwner",
          "type": "address"
        }
      ],
      "name": "OwnershipTransferred",
      "type": "event"
    },
    {
      "anonymous": false,
      "inputs": [
        {
          "indexed": true,
          "internalType": "address",
          "name": "from",
          "type": "address"
        },
        {
          "indexed": true,
          "internalType": "address",
          "name": "to",
          "type": "address"
        },
        {
          "indexed": true,
          "internalType": "uint256",
          "name": "tokenId",
          "type": "uint256"
        }
      ],
      "name": "Transfer",
      "type": "event"
    },
    {
      "inputs": [
        {
          "internalType": "address",
          "name": "to",
          "type": "address"
        },
        {
          "internalType": "uint256",
          "name": "tokenId",
          "type": "uint256"
        }
      ],
      "name": "approve",
      "outputs": [],
      "stateMutability": "nonpayable",
      "type": "function"
    },
    {
      "inputs": [
        {
          "internalType": "address",
          "name": "owner",
          "type": "address"
        }
      ],
      "name": "balanceOf",
      "outputs": [
        {
          "internalType": "uint256",
          "name": "",
          "type": "uint256"
        }
      ],
      "stateMutability": "view",
      "type": "function"
    },
    {
      "inputs": [
        {
          "internalType": "uint256",
          "name": "tokenId",
          "type": "uint256"
        }
      ],
      "name": "buyNFT",
      "outputs": [],
      "stateMutability": "payable",
      "type": "function"
    },
    {
      "inputs": [
        {
          "internalType": "uint256",
          "name": "maxSupply",
          "type": "uint256"
        },
        {
          "internalType": "string",
          "name": "baseTokenURI",
          "type": "string"
        },
        {
          "internalType": "uint256",
          "name": "price",
          "type": "uint256"
        }
      ],
      "name": "createNFTSeries",
      "outputs": [
        {
          "internalType": "uint256",
          "name": "",
          "type": "uint256"
        }
      ],
      "stateMutability": "nonpayable",
      "type": "function"
    },
    {
      "inputs": [],
      "name": "dailyMintLimit",
      "outputs": [
        {
          "internalType": "uint256",
          "name": "",
          "type": "uint256"
        }
      ],
      "stateMutability": "view",
      "type": "function"
    },
    {
      "inputs": [
        {
          "internalType": "address",
          "name": "",
          "type": "address"
        }
      ],
      "name": "dailyMints",
      "outputs": [
        {
          "internalType": "uint256",
          "name": "",
          "type": "uint256"
        }
      ],
      "stateMutability": "view",
      "type": "function"
    },
    {
      "inputs": [
        {
          "internalType": "uint256",
          "name": "tokenId",
          "type": "uint256"
        }
      ],
      "name": "getApproved",
      "outputs": [
        {
          "internalType": "address",
          "name": "",
          "type": "address"
        }
      ],
      "stateMutability": "view",
      "type": "function"
    },
    {
      "inputs": [
        {
          "internalType": "uint256",
          "name": "seriesId",
          "type": "uint256"
        }
      ],
      "name": "getSeriesInfo",
      "outputs": [
        {
          "internalType": "address",
          "name": "creator",
          "type": "address"
        },
        {
          "internalType": "uint256",
          "name": "maxSupply",
          "type": "uint256"
        },
        {
          "internalType": "uint256",
          "name": "currentSupply",
          "type": "uint256"
        },
        {
          "internalType": "string",
          "name": "baseTokenURI",
          "type": "string"
        },
        {
          "internalType": "uint256",
          "name": "price",
          "type": "uint256"
        },
        {
          "internalType": "bool",
          "name": "isActive",
          "type": "bool"
        }
      ],
      "stateMutability": "view",
      "type": "function"
    },
    {
      "inputs": [
        {
          "internalType": "address",
          "name": "owner",
          "type": "address"
        },
        {
          "internalType": "address",
          "name": "operator",
          "type": "address"
        }
      ],
      "name": "isApprovedForAll",
      "outputs": [
        {
          "internalType": "bool",
          "name": "",
          "type": "bool"
        }
      ],
      "stateMutability": "view",
      "type": "function"
    },
    {
      "inputs": [
        {
          "internalType": "uint256",
          "name": "",
          "type": "uint256"
        }
      ],
      "name": "isTokenListed",
      "outputs": [
        {
          "internalType": "bool",
          "name": "",
          "type": "bool"
        }
      ],
      "stateMutability": "view",
      "type": "function"
    },
    {
      "inputs": [
        {
          "internalType": "address",
          "name": "",
          "type": "address"
        }
      ],
      "name": "lastMintDay",
      "outputs": [
        {
          "internalType": "uint256",
          "name": "",
          "type": "uint256"
        }
      ],
      "stateMutability": "view",
      "type": "function"
    },
    {
      "inputs": [
        {
          "internalType": "uint256",
          "name": "tokenId",
          "type": "uint256"
        },
        {
          "internalType": "uint256",
          "name": "price",
          "type": "uint256"
        }
      ],
      "name": "listNFT",
      "outputs": [],
      "stateMutability": "nonpayable",
      "type": "function"
    },
    {
      "inputs": [],
      "name": "mintPrice",
      "outputs": [
        {
          "internalType": "uint256",
          "name": "",
          "type": "uint256"
        }
      ],
      "stateMutability": "view",
      "type": "function"
    },
    {
      "inputs": [
        {
          "internalType": "uint256",
          "name": "seriesId",
          "type": "uint256"
        }
      ],
      "name": "mintSeriesNFT",
      "outputs": [
        {
          "internalType": "uint256",
          "name": "",
          "type": "uint256"
        }
      ],
      "stateMutability": "payable",
      "type": "function"
    },
    {
      "inputs": [],
      "name": "name",
      "outputs": [
        {
          "internalType": "string",
          "name": "",
          "type": "string"
        }
      ],
      "stateMutability": "view",
      "type": "function"
    },
    {
      "inputs": [
        {
          "internalType": "uint256",
          "name": "",
          "type": "uint256"
        }
      ],
      "name": "nftSeries",
      "outputs": [
        {
          "internalType": "address",
          "name": "creator",
          "type": "address"
        },
        {
          "internalType": "uint256",
          "name": "maxSupply",
          "type": "uint256"
        },
        {
          "internalType": "uint256",
          "name": "currentSupply",
          "type": "uint256"
        },
        {
          "internalType": "string",
          "name": "baseTokenURI",
          "type": "string"
        },
        {
          "internalType": "uint256",
          "name": "price",
          "type": "uint256"
        },
        {
          "internalType": "bool",
          "name": "isActive",
          "type": "bool"
        }
      ],
      "stateMutability": "view",
      "type": "function"
    },
    {
      "inputs": [],
      "name": "owner",
      "outputs": [
        {
          "internalType": "address",
          "name": "",
          "type": "address"
        }
      ],
      "stateMutability": "view",
      "type": "function"
    },
    {
      "inputs": [
        {
          "internalType": "uint256",
          "name": "tokenId",
          "type": "uint256"
        }
      ],
      "name": "ownerOf",
      "outputs": [
        {
          "internalType": "address",
          "name": "",
          "type": "address"
        }
      ],
      "stateMutability": "view",
      "type": "function"
    },
    {
      "inputs": [],
      "name": "platformFee",
      "outputs": [
        {
          "internalType": "uint256",
          "name": "",
          "type": "uint256"
        }
      ],
      "stateMutability": "view",
      "type": "function"
    },
    {
      "inputs": [],
      "name": "renounceOwnership",
      "outputs": [],
      "stateMutability": "nonpayable",
      "type": "function"
    },
    {
      "inputs": [
        {
          "internalType": "address",
          "name": "from",
          "type": "address"
        },
        {
          "internalType": "address",
          "name": "to",
          "type": "address"
        },
        {
          "internalType": "uint256",
          "name": "tokenId",
          "type": "uint256"
        }
      ],
      "name": "safeTransferFrom",
      "outputs": [],
      "stateMutability": "nonpayable",
      "type": "function"
    },
    {
      "inputs": [
        {
          "internalType": "address",
          "name": "from",
          "type": "address"
        },
        {
          "internalType": "address",
          "name": "to",
          "type": "address"
        },
        {
          "internalType": "uint256",
          "name": "tokenId",
          "type": "uint256"
        },
        {
          "internalType": "bytes",
          "name": "data",
          "type": "bytes"
        }
      ],
      "name": "safeTransferFrom",
      "outputs": [],
      "stateMutability": "nonpayable",
      "type": "function"
    },
    {
      "inputs": [
        {
          "internalType": "address",
          "name": "operator",
          "type": "address"
        },
        {
          "internalType": "bool",
          "name": "approved",
          "type": "bool"
        }
      ],
      "name": "setApprovalForAll",
      "outputs": [],
      "stateMutability": "nonpayable",
      "type": "function"
    },
    {
      "inputs": [
        {
          "internalType": "uint256",
          "name": "_limit",
          "type": "uint256"
        }
      ],
      "name": "setDailyMintLimit",
      "outputs": [],
      "stateMutability": "nonpayable",
      "type": "function"
    },
    {
      "inputs": [
        {
          "internalType": "uint256",
          "name": "_mintPrice",
          "type": "uint256"
        }
      ],
      "name": "setMintPrice",
      "outputs": [],
      "stateMutability": "nonpayable",
      "type": "function"
    },
    {
      "inputs": [
        {
          "internalType": "uint256",
          "name": "_fee",
          "type": "uint256"
        }
      ],
      "name": "setPlatformFee",
      "outputs": [],
      "stateMutability": "nonpayable",
      "type": "function"
    },
    {
      "inputs": [
        {
          "internalType": "bytes4",
          "name": "interfaceId",
          "type": "bytes4"
        }
      ],
      "name": "supportsInterface",
      "outputs": [
        {
          "internalType": "bool",
          "name": "",
          "type": "bool"
        }
      ],
      "stateMutability": "view",
      "type": "function"
    },
    {
      "inputs": [],
      "name": "symbol",
      "outputs": [
        {
          "internalType": "string",
          "name": "",
          "type": "string"
        }
      ],
      "stateMutability": "view",
      "type": "function"
    },
    {
      "inputs": [
        {
          "internalType": "uint256",
          "name": "seriesId",
          "type": "uint256"
        }
      ],
      "name": "toggleSeriesActive",
      "outputs": [],
      "stateMutability": "nonpayable",
      "type": "function"
    },
    {
      "inputs": [
        {
          "internalType": "uint256",
          "name": "",
          "type": "uint256"
        }
      ],
      "name": "tokenIdToPrice",
      "outputs": [
        {
          "internalType": "uint256",
          "name": "",
          "type": "uint256"
        }
      ],
      "stateMutability": "view",
      "type": "function"
    },
    {
      "inputs": [
        {
          "internalType": "uint256",
          "name": "",
          "type": "uint256"
        }
      ],
      "name": "tokenIdToSeries",
      "outputs": [
        {
          "internalType": "uint256",
          "name": "",
          "type": "uint256"
        }
      ],
      "stateMutability": "view",
      "type": "function"
    },
    {
      "inputs": [
        {
          "internalType": "uint256",
          "name": "tokenId",
          "type": "uint256"
        }
      ],
      "name": "tokenURI",
      "outputs": [
        {
          "internalType": "string",
          "name": "",
          "type": "string"
        }
      ],
      "stateMutability": "view",
      "type": "function"
    },
    {
      "inputs": [
        {
          "internalType": "address",
          "name": "from",
          "type": "address"
        },
        {
          "internalType": "address",
          "name": "to",
          "type": "address"
        },
        {
          "internalType": "uint256",
          "name": "tokenId",
          "type": "uint256"
        }
      ],
      "name": "transferFrom",
      "outputs": [],
      "stateMutability": "nonpayable",
      "type": "function"
    },
    {
      "inputs": [
        {
          "internalType": "address",
          "name": "newOwner",
          "type": "address"
        }
      ],
      "name": "transferOwnership",
      "outputs": [],
      "stateMutability": "nonpayable",
      "type": "function"
    },
    {
      "inputs": [
        {
          "internalType": "uint256",
          "name": "tokenId",
          "type": "uint256"
        }
      ],
      "name": "unlistNFT",
      "outputs": [],
      "stateMutability": "nonpayable",
      "type": "function"
    },
    {
      "inputs": [
        {
          "internalType": "uint256",
          "name": "seriesId",
          "type": "uint256"
        },
        {
          "internalType": "uint256",
          "name": "newPrice",
          "type": "uint256"
        }
      ],
      "name": "updateSeriesPrice",
      "outputs": [],
      "stateMutability": "nonpayable",
      "type": "function"
    },
    {
      "inputs": [],
      "name": "withdraw",
      "outputs": [],
      "stateMutability": "nonpayable",
      "type": "function"
    }
  ],
  "bytecode": "0x6080604052655af3107a4000600b55600a600c5560196013553480156200002557600080fd5b50336040518060400160405280600981526020017f536f6369616c4e465400000000000000000000000000000000000000000000008152506040518060400160405280600481526020017f534e4654000000000000000000000000000000000000000000000000000000008152508160009081620000a491906200048e565b508060019081620000b691906200048e565b505050600073ffffffffffffffffffffffffffffffffffffffff168173ffffffffffffffffffffffffffffffffffffffff16036200012e5760006040517f1e4fbdf7000000000000000000000000000000000000000000000000000000008152600401620001259190620005ba565b60405180910390fd5b6200013f816200014e60201b60201c565b506001600881905550620005d7565b6000600760009054906101000a900473ffffffffffffffffffffffffffffffffffffffff16905081600760006101000a81548173ffffffffffffffffffffffffffffffffffffffff021916908373ffffffffffffffffffffffffffffffffffffffff1602179055508173ffffffffffffffffffffffffffffffffffffffff168173ffffffffffffffffffffffffffffffffffffffff167f8be0079c531659141344cd1fd0a4f28419497f9722a3daafe3b4186f6b6457e060405160405180910390a35050565b600081519050919050565b7f4e487b7100000000000000000000000000000000000000000000000000000000600052604160045260246000fd5b7f4e487b7100000000000000000000000000000000000000000000000000000000600052602260045260246000fd5b600060028204905060018216806200029657607f821691505b602082108103620002ac57620002ab6200024e565b5b50919050565b60008190508160005260206000209050919050565b60006020601f8301049050919050565b600082821b905092915050565b600060088302620003167fffffffffffffffffffffffffffffffffffffffffffffffffffffffffffffffff82620002d7565b620003228683620002d7565b95508019841693508086168417925050509392505050565b6000819050919050565b6000819050919050565b60006200036f6200036962000363846200033a565b62000344565b6200033a565b9050919050565b6000819050919050565b6200038b836200034e565b620003a36200039a8262000376565b848454620002e4565b825550505050565b600090565b620003ba620003ab565b620003c781848462000380565b505050565b5b81811015620003ef57620003e3600082620003b0565b600181019050620003cd565b5050565b601f8211156200043e576200040881620002b2565b6200041384620002c7565b8101602085101562000423578190505b6200043b6200043285620002c7565b830182620003cc565b50505b505050565b600082821c905092915050565b6000620004636000198460080262000443565b1980831691505092915050565b60006200047e838362000450565b9150826002028217905092915050565b620004998262000214565b67ffffffffffffffff811115620004b557620004b46200021f565b5b620004c182546200027d565b620004ce828285620003f3565b600060209050601f831160018114620005065760008415620004f1578287015190505b620004fd858262000470565b8655506200056d565b601f1984166200051686620002b2565b60005b82811015620005405784890151825560018201915060208501945060208101905062000519565b868310156200056057848901516200055c601f89168262000450565b8355505b6001600288020188555050505b505050505050565b600073ffffffffffffffffffffffffffffffffffffffff82169050919050565b6000620005a28262000575565b9050919050565b620005b48162000595565b82525050565b6000602082019050620005d16000830184620005a9565b92915050565b61451980620005e76000396000f3fe6080604052600436106102195760003560e01c806362680e4b116101235780639b83cddc116100ab578063d306a8ee1161006f578063d306a8ee14610806578063e985e9c514610843578063f2fde38b14610880578063f4812eb9146108a9578063f4a0a528146108e657610219565b80639b83cddc14610711578063a22cb4651461074e578063b2d52d2714610777578063b88d4fde146107a0578063c87b56dd146107c957610219565b8063715018a6116100f2578063715018a6146106525780638da5cb5b1461066957806394383f141461069457806395d89b41146106bd578063961f0944146106e857610219565b806362680e4b146105825780636352211e146105ad5780636817c76c146105ea57806370a082311461061557610219565b806326232a2e116101a657806342842e0e1161017557806342842e0e146104a257806351ed8288146104cb57806355653c22146104e757806356fb013914610517578063616eb2551461054057610219565b806326232a2e146103e15780632ddbeb521461040c57806339422188146104495780633ccfd60b1461048b57610219565b8063095ea7b3116101ed578063095ea7b3146102ec5780630fca33161461031557806312e8e2c31461035257806322fde4691461037b57806323b872dd146103b857610219565b8062e449ad1461021e57806301ffc9a71461024757806306fdde0314610284578063081812fc146102af575b600080fd5b34801561022a57600080fd5b506102456004803603810190610240919061323c565b61090f565b005b34801561025357600080fd5b5061026e600480360381019061026991906132c1565b610a08565b60405161027b9190613309565b60405180910390f35b34801561029057600080fd5b50610299610a69565b6040516102a691906133b4565b60405180910390f35b3480156102bb57600080fd5b506102d660048036038101906102d1919061323c565b610afb565b6040516102e39190613417565b60405180910390f35b3480156102f857600080fd5b50610313600480360381019061030e919061345e565b610b17565b005b34801561032157600080fd5b5061033c600480360381019061033791906135d3565b610b2d565b6040516103499190613651565b60405180910390f35b34801561035e57600080fd5b506103796004803603810190610374919061323c565b610c8f565b005b34801561038757600080fd5b506103a2600480360381019061039d919061323c565b610ce5565b6040516103af9190613651565b60405180910390f35b3480156103c457600080fd5b506103df60048036038101906103da919061366c565b610cfd565b005b3480156103ed57600080fd5b506103f6610dff565b6040516104039190613651565b60405180910390f35b34801561041857600080fd5b50610433600480360381019061042e91906136bf565b610e05565b6040516104409190613651565b60405180910390f35b34801561045557600080fd5b50610470600480360381019061046b919061323c565b610e1d565b604051610482969594939291906136ec565b60405180910390f35b34801561049757600080fd5b506104a0610f0e565b005b3480156104ae57600080fd5b506104c960048036038101906104c4919061366c565b610f6c565b005b6104e560048036038101906104e0919061323c565b610f8c565b005b61050160048036038101906104fc919061323c565b6111d9565b60405161050e9190613651565b60405180910390f35b34801561052357600080fd5b5061053e60048036038101906105399190613754565b611678565b005b34801561054c57600080fd5b506105676004803603810190610562919061323c565b61173b565b604051610579969594939291906136ec565b60405180910390f35b34801561058e57600080fd5b506105976118bc565b6040516105a49190613651565b60405180910390f35b3480156105b957600080fd5b506105d460048036038101906105cf919061323c565b6118c2565b6040516105e19190613417565b60405180910390f35b3480156105f657600080fd5b506105ff6118d4565b60405161060c9190613651565b60405180910390f35b34801561062157600080fd5b5061063c600480360381019061063791906136bf565b6118da565b6040516106499190613651565b60405180910390f35b34801561065e57600080fd5b50610667611994565b005b34801561067557600080fd5b5061067e6119a8565b60405161068b9190613417565b60405180910390f35b3480156106a057600080fd5b506106bb60048036038101906106b69190613754565b6119d2565b005b3480156106c957600080fd5b506106d2611b0d565b6040516106df91906133b4565b60405180910390f35b3480156106f457600080fd5b5061070f600480360381019061070a919061323c565b611b9f565b005b34801561071d57600080fd5b506107386004803603810190610733919061323c565b611ce8565b6040516107459190613309565b60405180910390f35b34801561075a57600080fd5b50610775600480360381019061077091906137c0565b611d08565b005b34801561078357600080fd5b5061079e6004803603810190610799919061323c565b611d1e565b005b3480156107ac57600080fd5b506107c760048036038101906107c291906138a1565b611d30565b005b3480156107d557600080fd5b506107f060048036038101906107eb919061323c565b611d55565b6040516107fd91906133b4565b60405180910390f35b34801561081257600080fd5b5061082d600480360381019061082891906136bf565b611e68565b60405161083a9190613651565b60405180910390f35b34801561084f57600080fd5b5061086a60048036038101906108659190613924565b611e80565b6040516108779190613309565b60405180910390f35b34801561088c57600080fd5b506108a760048036038101906108a291906136bf565b611f14565b005b3480156108b557600080fd5b506108d060048036038101906108cb919061323c565b611f9a565b6040516108dd9190613651565b60405180910390f35b3480156108f257600080fd5b5061090d6004803603810190610908919061323c565b611fb2565b005b3373ffffffffffffffffffffffffffffffffffffffff16600d600083815260200190815260200160002060000160009054906101000a900473ffffffffffffffffffffffffffffffffffffffff1673ffffffffffffffffffffffffffffffffffffffff16146109b3576040517f08c379a00000000000000000000000000000000000000000000000000000000081526004016109aa906139b0565b60405180910390fd5b600d600082815260200190815260200160002060050160009054906101000a900460ff1615600d600083815260200190815260200160002060050160006101000a81548160ff02191690831515021790555050565b6000634906490660e01b7bffffffffffffffffffffffffffffffffffffffffffffffffffffffff1916827bffffffffffffffffffffffffffffffffffffffffffffffffffffffff19161480610a625750610a6182611fc4565b5b9050919050565b606060008054610a78906139ff565b80601f0160208091040260200160405190810160405280929190818152602001828054610aa4906139ff565b8015610af15780601f10610ac657610100808354040283529160200191610af1565b820191906000526020600020905b815481529060010190602001808311610ad457829003601f168201915b5050505050905090565b6000610b06826120a6565b50610b108261212e565b9050919050565b610b298282610b2461216b565b612173565b5050565b60006001600a6000828254610b429190613a5f565b925050819055506000600a5490506040518060c001604052803373ffffffffffffffffffffffffffffffffffffffff1681526020018681526020016000815260200185815260200184815260200160011515815250600d600083815260200190815260200160002060008201518160000160006101000a81548173ffffffffffffffffffffffffffffffffffffffff021916908373ffffffffffffffffffffffffffffffffffffffff16021790555060208201518160010155604082015181600201556060820151816003019081610c1a9190613c3f565b506080820151816004015560a08201518160050160006101000a81548160ff021916908315150217905550905050807f6d4fc59c9dfb4af85fec00cec8c98834ec66af8181f553c3fcfab23519d0c94c338787604051610c7c93929190613d11565b60405180910390a2809150509392505050565b610c97612185565b6064811115610cdb576040517f08c379a0000000000000000000000000000000000000000000000000000000008152600401610cd290613d9b565b60405180910390fd5b8060138190555050565b60126020528060005260406000206000915090505481565b600073ffffffffffffffffffffffffffffffffffffffff168273ffffffffffffffffffffffffffffffffffffffff1603610d6f5760006040517f64a0ae92000000000000000000000000000000000000000000000000000000008152600401610d669190613417565b60405180910390fd5b6000610d838383610d7e61216b565b61220c565b90508373ffffffffffffffffffffffffffffffffffffffff168173ffffffffffffffffffffffffffffffffffffffff1614610df9578382826040517f64283d7b000000000000000000000000000000000000000000000000000000008152600401610df093929190613dbb565b60405180910390fd5b50505050565b60135481565b600f6020528060005260406000206000915090505481565b600d6020528060005260406000206000915090508060000160009054906101000a900473ffffffffffffffffffffffffffffffffffffffff1690806001015490806002015490806003018054610e72906139ff565b80601f0160208091040260200160405190810160405280929190818152602001828054610e9e906139ff565b8015610eeb5780601f10610ec057610100808354040283529160200191610eeb565b820191906000526020600020905b815481529060010190602001808311610ece57829003601f168201915b5050505050908060040154908060050160009054906101000a900460ff16905086565b610f16612185565b6000479050610f236119a8565b73ffffffffffffffffffffffffffffffffffffffff166108fc829081150290604051600060405180830381858888f19350505050158015610f68573d6000803e3d6000fd5b5050565b610f8783838360405180602001604052806000815250611d30565b505050565b610f94612426565b6011600082815260200190815260200160002060009054906101000a900460ff16610ff4576040517f08c379a0000000000000000000000000000000000000000000000000000000008152600401610feb90613e3e565b60405180910390fd5b6000601060008381526020019081526020016000205490508034101561104f576040517f08c379a000000000000000000000000000000000000000000000000000000000815260040161104690613eaa565b60405180910390fd5b600061105a836118c2565b90503373ffffffffffffffffffffffffffffffffffffffff168173ffffffffffffffffffffffffffffffffffffffff16036110ca576040517f08c379a00000000000000000000000000000000000000000000000000000000081526004016110c190613f16565b60405180910390fd5b60006103e8601354846110dd9190613f36565b6110e79190613fa7565b9050600081846110f79190613fd8565b905061110483338761246c565b8273ffffffffffffffffffffffffffffffffffffffff166108fc829081150290604051600060405180830381858888f1935050505015801561114a573d6000803e3d6000fd5b5060006011600087815260200190815260200160002060006101000a81548160ff0219169083151502179055506010600086815260200190815260200160002060009055847f2820044bbebd591ee7d08b7d81dd01945a1a32706da693a946e532d6d98842588585336040516111c29392919061400c565b60405180910390a2505050506111d66125d9565b50565b60008062015180426111eb9190613fa7565b9050600f60003373ffffffffffffffffffffffffffffffffffffffff1673ffffffffffffffffffffffffffffffffffffffff168152602001908152602001600020548111156112be576000600e60003373ffffffffffffffffffffffffffffffffffffffff1673ffffffffffffffffffffffffffffffffffffffff1681526020019081526020016000208190555080600f60003373ffffffffffffffffffffffffffffffffffffffff1673ffffffffffffffffffffffffffffffffffffffff168152602001908152602001600020819055505b600c54600e60003373ffffffffffffffffffffffffffffffffffffffff1673ffffffffffffffffffffffffffffffffffffffff1681526020019081526020016000205410611341576040517f08c379a00000000000000000000000000000000000000000000000000000000081526004016113389061408f565b60405180910390fd5b6000600d600085815260200190815260200160002090508060050160009054906101000a900460ff166113a9576040517f08c379a00000000000000000000000000000000000000000000000000000000081526004016113a0906140fb565b60405180910390fd5b600081600101541115611401578060010154816002015410611400576040517f08c379a00000000000000000000000000000000000000000000000000000000081526004016113f790614167565b60405180910390fd5b5b60008082600401541161141657600b5461141c565b81600401545b905080341015611461576040517f08c379a000000000000000000000000000000000000000000000000000000000815260040161145890613eaa565b60405180910390fd5b6001600960008282546114749190613a5f565b925050819055506000600954905061148c33826125e3565b6114c2818460030161149d84612601565b6040516020016114ae929190614246565b6040516020818303038152906040526126cf565b8260020160008154809291906114d79061426a565b9190505550856012600083815260200190815260200160002081905550600e60003373ffffffffffffffffffffffffffffffffffffffff1673ffffffffffffffffffffffffffffffffffffffff16815260200190815260200160002060008154809291906115449061426a565b91905055506115516119a8565b73ffffffffffffffffffffffffffffffffffffffff168360000160009054906101000a900473ffffffffffffffffffffffffffffffffffffffff1673ffffffffffffffffffffffffffffffffffffffff16146116335760006103e86102bc346115ba9190613f36565b6115c49190613fa7565b90508360000160009054906101000a900473ffffffffffffffffffffffffffffffffffffffff1673ffffffffffffffffffffffffffffffffffffffff166108fc829081150290604051600060405180830381858888f19350505050158015611630573d6000803e3d6000fd5b50505b85817ffca9437e237ca408a74cca23e3078fd1f6c700960dac7f09f8c6cf5177aefe1a336040516116649190613417565b60405180910390a380945050505050919050565b3373ffffffffffffffffffffffffffffffffffffffff16600d600084815260200190815260200160002060000160009054906101000a900473ffffffffffffffffffffffffffffffffffffffff1673ffffffffffffffffffffffffffffffffffffffff161461171c576040517f08c379a0000000000000000000000000000000000000000000000000000000008152600401611713906139b0565b60405180910390fd5b80600d6000848152602001908152602001600020600401819055505050565b600080600060606000806000600d60008981526020019081526020016000206040518060c00160405290816000820160009054906101000a900473ffffffffffffffffffffffffffffffffffffffff1673ffffffffffffffffffffffffffffffffffffffff1673ffffffffffffffffffffffffffffffffffffffff16815260200160018201548152602001600282015481526020016003820180546117df906139ff565b80601f016020809104026020016040519081016040528092919081815260200182805461180b906139ff565b80156118585780601f1061182d57610100808354040283529160200191611858565b820191906000526020600020905b81548152906001019060200180831161183b57829003601f168201915b50505050508152602001600482015481526020016005820160009054906101000a900460ff1615151515815250509050806000015181602001518260400151836060015184608001518560a001519650965096509650965096505091939550919395565b600c5481565b60006118cd826120a6565b9050919050565b600b5481565b60008073ffffffffffffffffffffffffffffffffffffffff168273ffffffffffffffffffffffffffffffffffffffff160361194d5760006040517f89c62b640000000000000000000000000000000000000000000000000000000081526004016119449190613417565b60405180910390fd5b600360008373ffffffffffffffffffffffffffffffffffffffff1673ffffffffffffffffffffffffffffffffffffffff168152602001908152602001600020549050919050565b61199c612185565b6119a6600061272b565b565b6000600760009054906101000a900473ffffffffffffffffffffffffffffffffffffffff16905090565b3373ffffffffffffffffffffffffffffffffffffffff166119f2836118c2565b73ffffffffffffffffffffffffffffffffffffffff1614611a48576040517f08c379a0000000000000000000000000000000000000000000000000000000008152600401611a3f906142fe565b60405180910390fd5b60008111611a8b576040517f08c379a0000000000000000000000000000000000000000000000000000000008152600401611a829061436a565b60405180910390fd5b80601060008481526020019081526020016000208190555060016011600084815260200190815260200160002060006101000a81548160ff021916908315150217905550817fd2ab19646d6f9fdd37206f962b4ebaab8a4a23ad87f7695e7e1736803cb8bf748233604051611b0192919061438a565b60405180910390a25050565b606060018054611b1c906139ff565b80601f0160208091040260200160405190810160405280929190818152602001828054611b48906139ff565b8015611b955780601f10611b6a57610100808354040283529160200191611b95565b820191906000526020600020905b815481529060010190602001808311611b7857829003601f168201915b5050505050905090565b3373ffffffffffffffffffffffffffffffffffffffff16611bbf826118c2565b73ffffffffffffffffffffffffffffffffffffffff1614611c15576040517f08c379a0000000000000000000000000000000000000000000000000000000008152600401611c0c906142fe565b60405180910390fd5b6011600082815260200190815260200160002060009054906101000a900460ff16611c75576040517f08c379a0000000000000000000000000000000000000000000000000000000008152600401611c6c90613e3e565b60405180910390fd5b60006011600083815260200190815260200160002060006101000a81548160ff0219169083151502179055506010600082815260200190815260200160002060009055807fcd14eb7ebf273ed59a9fd1cf8651f3f40d9a04355b3511376f0d17b37ba224ff60405160405180910390a250565b60116020528060005260406000206000915054906101000a900460ff1681565b611d1a611d1361216b565b83836127f1565b5050565b611d26612185565b80600c8190555050565b611d3b848484610cfd565b611d4f611d4661216b565b85858585612960565b50505050565b6060611d60826120a6565b506000600660008481526020019081526020016000208054611d81906139ff565b80601f0160208091040260200160405190810160405280929190818152602001828054611dad906139ff565b8015611dfa5780601f10611dcf57610100808354040283529160200191611dfa565b820191906000526020600020905b815481529060010190602001808311611ddd57829003601f168201915b505050505090506000611e0b612b11565b90506000815103611e20578192505050611e63565b600082511115611e55578082604051602001611e3d9291906143b3565b60405160208183030381529060405292505050611e63565b611e5e84612b28565b925050505b919050565b600e6020528060005260406000206000915090505481565b6000600560008473ffffffffffffffffffffffffffffffffffffffff1673ffffffffffffffffffffffffffffffffffffffff16815260200190815260200160002060008373ffffffffffffffffffffffffffffffffffffffff1673ffffffffffffffffffffffffffffffffffffffff16815260200190815260200160002060009054906101000a900460ff16905092915050565b611f1c612185565b600073ffffffffffffffffffffffffffffffffffffffff168173ffffffffffffffffffffffffffffffffffffffff1603611f8e5760006040517f1e4fbdf7000000000000000000000000000000000000000000000000000000008152600401611f859190613417565b60405180910390fd5b611f978161272b565b50565b60106020528060005260406000206000915090505481565b611fba612185565b80600b8190555050565b60007f80ac58cd000000000000000000000000000000000000000000000000000000007bffffffffffffffffffffffffffffffffffffffffffffffffffffffff1916827bffffffffffffffffffffffffffffffffffffffffffffffffffffffff1916148061208f57507f5b5e139f000000000000000000000000000000000000000000000000000000007bffffffffffffffffffffffffffffffffffffffffffffffffffffffff1916827bffffffffffffffffffffffffffffffffffffffffffffffffffffffff1916145b8061209f575061209e82612b91565b5b9050919050565b6000806120b283612bfb565b9050600073ffffffffffffffffffffffffffffffffffffffff168173ffffffffffffffffffffffffffffffffffffffff160361212557826040517f7e27328900000000000000000000000000000000000000000000000000000000815260040161211c9190613651565b60405180910390fd5b80915050919050565b60006004600083815260200190815260200160002060009054906101000a900473ffffffffffffffffffffffffffffffffffffffff169050919050565b600033905090565b6121808383836001612c38565b505050565b61218d61216b565b73ffffffffffffffffffffffffffffffffffffffff166121ab6119a8565b73ffffffffffffffffffffffffffffffffffffffff161461220a576121ce61216b565b6040517f118cdaa70000000000000000000000000000000000000000000000000000000081526004016122019190613417565b60405180910390fd5b565b60008061221884612bfb565b9050600073ffffffffffffffffffffffffffffffffffffffff168373ffffffffffffffffffffffffffffffffffffffff161461225a57612259818486612dfd565b5b600073ffffffffffffffffffffffffffffffffffffffff168173ffffffffffffffffffffffffffffffffffffffff16146122eb5761229c600085600080612c38565b6001600360008373ffffffffffffffffffffffffffffffffffffffff1673ffffffffffffffffffffffffffffffffffffffff168152602001908152602001600020600082825403925050819055505b600073ffffffffffffffffffffffffffffffffffffffff168573ffffffffffffffffffffffffffffffffffffffff161461236e576001600360008773ffffffffffffffffffffffffffffffffffffffff1673ffffffffffffffffffffffffffffffffffffffff168152602001908152602001600020600082825401925050819055505b846002600086815260200190815260200160002060006101000a81548173ffffffffffffffffffffffffffffffffffffffff021916908373ffffffffffffffffffffffffffffffffffffffff160217905550838573ffffffffffffffffffffffffffffffffffffffff168273ffffffffffffffffffffffffffffffffffffffff167fddf252ad1be2c89b69c2b068fc378daa952ba7f163c4a11628f55a4df523b3ef60405160405180910390a4809150509392505050565b600260085403612462576040517f3ee5aeb500000000000000000000000000000000000000000000000000000000815260040160405180910390fd5b6002600881905550565b600073ffffffffffffffffffffffffffffffffffffffff168273ffffffffffffffffffffffffffffffffffffffff16036124de5760006040517f64a0ae920000000000000000000000000000000000000000000000000000000081526004016124d59190613417565b60405180910390fd5b60006124ec8383600061220c565b9050600073ffffffffffffffffffffffffffffffffffffffff168173ffffffffffffffffffffffffffffffffffffffff160361255f57816040517f7e2732890000000000000000000000000000000000000000000000000000000081526004016125569190613651565b60405180910390fd5b8373ffffffffffffffffffffffffffffffffffffffff168173ffffffffffffffffffffffffffffffffffffffff16146125d3578382826040517f64283d7b0000000000000000000000000000000000000000000000000000000081526004016125ca93929190613dbb565b60405180910390fd5b50505050565b6001600881905550565b6125fd828260405180602001604052806000815250612ec1565b5050565b60606000600161261084612ee5565b01905060008167ffffffffffffffff81111561262f5761262e6134a8565b5b6040519080825280601f01601f1916602001820160405280156126615781602001600182028036833780820191505090505b509050600082602001820190505b6001156126c4578080600190039150507f3031323334353637383961626364656600000000000000000000000000000000600a86061a8153600a85816126b8576126b7613f78565b5b0494506000850361266f575b819350505050919050565b806006600084815260200190815260200160002090816126ef9190613c3f565b507ff8e1a15aba9398e019f0b49df1a4fde98ee17ae345cb5f6b5e2c27f5033e8ce78260405161271f9190613651565b60405180910390a15050565b6000600760009054906101000a900473ffffffffffffffffffffffffffffffffffffffff16905081600760006101000a81548173ffffffffffffffffffffffffffffffffffffffff021916908373ffffffffffffffffffffffffffffffffffffffff1602179055508173ffffffffffffffffffffffffffffffffffffffff168173ffffffffffffffffffffffffffffffffffffffff167f8be0079c531659141344cd1fd0a4f28419497f9722a3daafe3b4186f6b6457e060405160405180910390a35050565b600073ffffffffffffffffffffffffffffffffffffffff168273ffffffffffffffffffffffffffffffffffffffff160361286257816040517f5b08ba180000000000000000000000000000000000000000000000000000000081526004016128599190613417565b60405180910390fd5b80600560008573ffffffffffffffffffffffffffffffffffffffff1673ffffffffffffffffffffffffffffffffffffffff16815260200190815260200160002060008473ffffffffffffffffffffffffffffffffffffffff1673ffffffffffffffffffffffffffffffffffffffff16815260200190815260200160002060006101000a81548160ff0219169083151502179055508173ffffffffffffffffffffffffffffffffffffffff168373ffffffffffffffffffffffffffffffffffffffff167f17307eab39ab6107e8899845ad3d59bd9653f200f220920489ca2b5937696c31836040516129539190613309565b60405180910390a3505050565b60008373ffffffffffffffffffffffffffffffffffffffff163b1115612b0a578273ffffffffffffffffffffffffffffffffffffffff1663150b7a02868685856040518563ffffffff1660e01b81526004016129bf949392919061442c565b6020604051808303816000875af19250505080156129fb57506040513d601f19601f820116820180604052508101906129f8919061448d565b60015b612a7f573d8060008114612a2b576040519150601f19603f3d011682016040523d82523d6000602084013e612a30565b606091505b506000815103612a7757836040517f64a0ae92000000000000000000000000000000000000000000000000000000008152600401612a6e9190613417565b60405180910390fd5b805181602001fd5b63150b7a0260e01b7bffffffffffffffffffffffffffffffffffffffffffffffffffffffff1916817bffffffffffffffffffffffffffffffffffffffffffffffffffffffff191614612b0857836040517f64a0ae92000000000000000000000000000000000000000000000000000000008152600401612aff9190613417565b60405180910390fd5b505b5050505050565b606060405180602001604052806000815250905090565b6060612b33826120a6565b506000612b3e612b11565b90506000815111612b5e5760405180602001604052806000815250612b89565b80612b6884612601565b604051602001612b799291906143b3565b6040516020818303038152906040525b915050919050565b60007f01ffc9a7000000000000000000000000000000000000000000000000000000007bffffffffffffffffffffffffffffffffffffffffffffffffffffffff1916827bffffffffffffffffffffffffffffffffffffffffffffffffffffffff1916149050919050565b60006002600083815260200190815260200160002060009054906101000a900473ffffffffffffffffffffffffffffffffffffffff169050919050565b8080612c715750600073ffffffffffffffffffffffffffffffffffffffff168273ffffffffffffffffffffffffffffffffffffffff1614155b15612da5576000612c81846120a6565b9050600073ffffffffffffffffffffffffffffffffffffffff168373ffffffffffffffffffffffffffffffffffffffff1614158015612cec57508273ffffffffffffffffffffffffffffffffffffffff168173ffffffffffffffffffffffffffffffffffffffff1614155b8015612cff5750612cfd8184611e80565b155b15612d4157826040517fa9fbf51f000000000000000000000000000000000000000000000000000000008152600401612d389190613417565b60405180910390fd5b8115612da357838573ffffffffffffffffffffffffffffffffffffffff168273ffffffffffffffffffffffffffffffffffffffff167f8c5be1e5ebec7d5bd14f71427d1e84f3dd0314c0f7b2291e5b200ac8c7c3b92560405160405180910390a45b505b836004600085815260200190815260200160002060006101000a81548173ffffffffffffffffffffffffffffffffffffffff021916908373ffffffffffffffffffffffffffffffffffffffff16021790555050505050565b612e08838383613038565b612ebc57600073ffffffffffffffffffffffffffffffffffffffff168373ffffffffffffffffffffffffffffffffffffffff1603612e7d57806040517f7e273289000000000000000000000000000000000000000000000000000000008152600401612e749190613651565b60405180910390fd5b81816040517f177e802f000000000000000000000000000000000000000000000000000000008152600401612eb39291906144ba565b60405180910390fd5b505050565b612ecb83836130f9565b612ee0612ed661216b565b6000858585612960565b505050565b600080600090507a184f03e93ff9f4daa797ed6e38ed64bf6a1f0100000000000000008310612f43577a184f03e93ff9f4daa797ed6e38ed64bf6a1f0100000000000000008381612f3957612f38613f78565b5b0492506040810190505b6d04ee2d6d415b85acef81000000008310612f80576d04ee2d6d415b85acef81000000008381612f7657612f75613f78565b5b0492506020810190505b662386f26fc100008310612faf57662386f26fc100008381612fa557612fa4613f78565b5b0492506010810190505b6305f5e1008310612fd8576305f5e1008381612fce57612fcd613f78565b5b0492506008810190505b6127108310612ffd576127108381612ff357612ff2613f78565b5b0492506004810190505b60648310613020576064838161301657613015613f78565b5b0492506002810190505b600a831061302f576001810190505b80915050919050565b60008073ffffffffffffffffffffffffffffffffffffffff168373ffffffffffffffffffffffffffffffffffffffff16141580156130f057508273ffffffffffffffffffffffffffffffffffffffff168473ffffffffffffffffffffffffffffffffffffffff1614806130b157506130b08484611e80565b5b806130ef57508273ffffffffffffffffffffffffffffffffffffffff166130d78361212e565b73ffffffffffffffffffffffffffffffffffffffff16145b5b90509392505050565b600073ffffffffffffffffffffffffffffffffffffffff168273ffffffffffffffffffffffffffffffffffffffff160361316b5760006040517f64a0ae920000000000000000000000000000000000000000000000000000000081526004016131629190613417565b60405180910390fd5b60006131798383600061220c565b9050600073ffffffffffffffffffffffffffffffffffffffff168173ffffffffffffffffffffffffffffffffffffffff16146131ed5760006040517f73c6ac6e0000000000000000000000000000000000000000000000000000000081526004016131e49190613417565b60405180910390fd5b505050565b6000604051905090565b600080fd5b600080fd5b6000819050919050565b61321981613206565b811461322457600080fd5b50565b60008135905061323681613210565b92915050565b600060208284031215613252576132516131fc565b5b600061326084828501613227565b91505092915050565b60007fffffffff0000000000000000000000000000000000000000000000000000000082169050919050565b61329e81613269565b81146132a957600080fd5b50565b6000813590506132bb81613295565b92915050565b6000602082840312156132d7576132d66131fc565b5b60006132e5848285016132ac565b91505092915050565b60008115159050919050565b613303816132ee565b82525050565b600060208201905061331e60008301846132fa565b92915050565b600081519050919050565b600082825260208201905092915050565b60005b8381101561335e578082015181840152602081019050613343565b60008484015250505050565b6000601f19601f8301169050919050565b600061338682613324565b613390818561332f565b93506133a0818560208601613340565b6133a98161336a565b840191505092915050565b600060208201905081810360008301526133ce818461337b565b905092915050565b600073ffffffffffffffffffffffffffffffffffffffff82169050919050565b6000613401826133d6565b9050919050565b613411816133f6565b82525050565b600060208201905061342c6000830184613408565b92915050565b61343b816133f6565b811461344657600080fd5b50565b60008135905061345881613432565b92915050565b60008060408385031215613475576134746131fc565b5b600061348385828601613449565b925050602061349485828601613227565b9150509250929050565b600080fd5b600080fd5b7f4e487b7100000000000000000000000000000000000000000000000000000000600052604160045260246000fd5b6134e08261336a565b810181811067ffffffffffffffff821117156134ff576134fe6134a8565b5b80604052505050565b60006135126131f2565b905061351e82826134d7565b919050565b600067ffffffffffffffff82111561353e5761353d6134a8565b5b6135478261336a565b9050602081019050919050565b82818337600083830152505050565b600061357661357184613523565b613508565b905082815260208101848484011115613592576135916134a3565b5b61359d848285613554565b509392505050565b600082601f8301126135ba576135b961349e565b5b81356135ca848260208601613563565b91505092915050565b6000806000606084860312156135ec576135eb6131fc565b5b60006135fa86828701613227565b935050602084013567ffffffffffffffff81111561361b5761361a613201565b5b613627868287016135a5565b925050604061363886828701613227565b9150509250925092565b61364b81613206565b82525050565b60006020820190506136666000830184613642565b92915050565b600080600060608486031215613685576136846131fc565b5b600061369386828701613449565b93505060206136a486828701613449565b92505060406136b586828701613227565b9150509250925092565b6000602082840312156136d5576136d46131fc565b5b60006136e384828501613449565b91505092915050565b600060c0820190506137016000830189613408565b61370e6020830188613642565b61371b6040830187613642565b818103606083015261372d818661337b565b905061373c6080830185613642565b61374960a08301846132fa565b979650505050505050565b6000806040838503121561376b5761376a6131fc565b5b600061377985828601613227565b925050602061378a85828601613227565b9150509250929050565b61379d816132ee565b81146137a857600080fd5b50565b6000813590506137ba81613794565b92915050565b600080604083850312156137d7576137d66131fc565b5b60006137e585828601613449565b92505060206137f6858286016137ab565b9150509250929050565b600067ffffffffffffffff82111561381b5761381a6134a8565b5b6138248261336a565b9050602081019050919050565b600061384461383f84613800565b613508565b9050828152602081018484840111156138605761385f6134a3565b5b61386b848285613554565b509392505050565b600082601f8301126138885761388761349e565b5b8135613898848260208601613831565b91505092915050565b600080600080608085870312156138bb576138ba6131fc565b5b60006138c987828801613449565b94505060206138da87828801613449565b93505060406138eb87828801613227565b925050606085013567ffffffffffffffff81111561390c5761390b613201565b5b61391887828801613873565b91505092959194509250565b6000806040838503121561393b5761393a6131fc565b5b600061394985828601613449565b925050602061395a85828601613449565b9150509250929050565b7f4e6f74207365726965732063726561746f720000000000000000000000000000600082015250565b600061399a60128361332f565b91506139a582613964565b602082019050919050565b600060208201905081810360008301526139c98161398d565b9050919050565b7f4e487b7100000000000000000000000000000000000000000000000000000000600052602260045260246000fd5b60006002820490506001821680613a1757607f821691505b602082108103613a2a57613a296139d0565b5b50919050565b7f4e487b7100000000000000000000000000000000000000000000000000000000600052601160045260246000fd5b6000613a6a82613206565b9150613a7583613206565b9250828201905080821115613a8d57613a8c613a30565b5b92915050565b60008190508160005260206000209050919050565b60006020601f8301049050919050565b600082821b905092915050565b600060088302613af57fffffffffffffffffffffffffffffffffffffffffffffffffffffffffffffffff82613ab8565b613aff8683613ab8565b95508019841693508086168417925050509392505050565b6000819050919050565b6000613b3c613b37613b3284613206565b613b17565b613206565b9050919050565b6000819050919050565b613b5683613b21565b613b6a613b6282613b43565b848454613ac5565b825550505050565b600090565b613b7f613b72565b613b8a818484613b4d565b505050565b5b81811015613bae57613ba3600082613b77565b600181019050613b90565b5050565b601f821115613bf357613bc481613a93565b613bcd84613aa8565b81016020851015613bdc578190505b613bf0613be885613aa8565b830182613b8f565b50505b505050565b600082821c905092915050565b6000613c1660001984600802613bf8565b1980831691505092915050565b6000613c2f8383613c05565b9150826002028217905092915050565b613c4882613324565b67ffffffffffffffff811115613c6157613c606134a8565b5b613c6b82546139ff565b613c76828285613bb2565b600060209050601f831160018114613ca95760008415613c97578287015190505b613ca18582613c23565b865550613d09565b601f198416613cb786613a93565b60005b82811015613cdf57848901518255600182019150602085019450602081019050613cba565b86831015613cfc5784890151613cf8601f891682613c05565b8355505b6001600288020188555050505b505050505050565b6000606082019050613d266000830186613408565b613d336020830185613642565b8181036040830152613d45818461337b565b9050949350505050565b7f46656520746f6f20686967680000000000000000000000000000000000000000600082015250565b6000613d85600c8361332f565b9150613d9082613d4f565b602082019050919050565b60006020820190508181036000830152613db481613d78565b9050919050565b6000606082019050613dd06000830186613408565b613ddd6020830185613642565b613dea6040830184613408565b949350505050565b7f546f6b656e206e6f74206c697374656400000000000000000000000000000000600082015250565b6000613e2860108361332f565b9150613e3382613df2565b602082019050919050565b60006020820190508181036000830152613e5781613e1b565b9050919050565b7f496e73756666696369656e74207061796d656e74000000000000000000000000600082015250565b6000613e9460148361332f565b9150613e9f82613e5e565b602082019050919050565b60006020820190508181036000830152613ec381613e87565b9050919050565b7f43616e6e6f742062757920796f7572206f776e20746f6b656e00000000000000600082015250565b6000613f0060198361332f565b9150613f0b82613eca565b602082019050919050565b60006020820190508181036000830152613f2f81613ef3565b9050919050565b6000613f4182613206565b9150613f4c83613206565b9250828202613f5a81613206565b91508282048414831517613f7157613f70613a30565b5b5092915050565b7f4e487b7100000000000000000000000000000000000000000000000000000000600052601260045260246000fd5b6000613fb282613206565b9150613fbd83613206565b925082613fcd57613fcc613f78565b5b828204905092915050565b6000613fe382613206565b9150613fee83613206565b925082820390508181111561400657614005613a30565b5b92915050565b60006060820190506140216000830186613642565b61402e6020830185613408565b61403b6040830184613408565b949350505050565b7f4461696c79206d696e74206c696d697420726561636865640000000000000000600082015250565b600061407960188361332f565b915061408482614043565b602082019050919050565b600060208201905081810360008301526140a88161406c565b9050919050565b7f536572696573206973206e6f7420616374697665000000000000000000000000600082015250565b60006140e560148361332f565b91506140f0826140af565b602082019050919050565b60006020820190508181036000830152614114816140d8565b9050919050565b7f53657269657320737570706c79206c696d697420726561636865640000000000600082015250565b6000614151601b8361332f565b915061415c8261411b565b602082019050919050565b6000602082019050818103600083015261418081614144565b9050919050565b600081905092915050565b6000815461419f816139ff565b6141a98186614187565b945060018216600081146141c457600181146141d95761420c565b60ff198316865281151582028601935061420c565b6141e285613a93565b60005b83811015614204578154818901526001820191506020810190506141e5565b838801955050505b50505092915050565b600061422082613324565b61422a8185614187565b935061423a818560208601613340565b80840191505092915050565b60006142528285614192565b915061425e8284614215565b91508190509392505050565b600061427582613206565b91507fffffffffffffffffffffffffffffffffffffffffffffffffffffffffffffffff82036142a7576142a6613a30565b5b600182019050919050565b7f4e6f7420746f6b656e206f776e65720000000000000000000000000000000000600082015250565b60006142e8600f8361332f565b91506142f3826142b2565b602082019050919050565b60006020820190508181036000830152614317816142db565b9050919050565b7f5072696365206d75737420626520706f73697469766500000000000000000000600082015250565b600061435460168361332f565b915061435f8261431e565b602082019050919050565b6000602082019050818103600083015261438381614347565b9050919050565b600060408201905061439f6000830185613642565b6143ac6020830184613408565b9392505050565b60006143bf8285614215565b91506143cb8284614215565b91508190509392505050565b600081519050919050565b600082825260208201905092915050565b60006143fe826143d7565b61440881856143e2565b9350614418818560208601613340565b6144218161336a565b840191505092915050565b60006080820190506144416000830187613408565b61444e6020830186613408565b61445b6040830185613642565b818103606083015261446d81846143f3565b905095945050505050565b60008151905061448781613295565b92915050565b6000602082840312156144a3576144a26131fc565b5b60006144b184828501614478565b91505092915050565b60006040820190506144cf6000830185613408565b6144dc6020830184613642565b939250505056fea2646970667358221220fe561933e6ada85ea6a0b006b96a1bd8126159576973329f1f232f60263f08e164736f6c63430008140033",
  "linkReferences": {},
  "deployedLinkReferences": {}
}